:020000040800F2
:1000000000040020490100088D0300085703000880
:100010008903000891010008A506000800000000FF
:10002000000000000000000000000000550500086E
:1000300095010008000000008F0300084106000839
:100040006301000863010008630100086301000800
:1000500063010008630100086301000863010008F0
:1000600063010008630100086301000863010008E0
:1000700063010008630100086301000863010008D0
:1000800063010008630100086301000863010008C0
:1000900063010008630100086301000863010008B0
:1000A00063010008630100086301000863010008A0
:1000B0006301000863010008630100086301000890
:1000C0006301000863010008630100086301000880
:1000D0006301000863010008630100086301000870
:1000E0006301000863010008630100086301000860
:1000F0006301000863010008630100086301000850
:10010000630100086301000863010008630100083F
:10011000630100086301000863010008630100082F
:10012000630100086301000863010008630100081F
:10013000DFF810D000F01AF800480047C9060008A0
:10014000AFF30080000400200648804706480047BF
:10015000FEE7FEE7FEE7FEE7FEE7FEE7FEE7FEE777
:10016000FEE7FEE74506000831010008064C074D92
:1001700006E0E06840F0010394E807009847103477
:10018000AC42F6D3FFF7D8FFFC0600080C070008C6
:1001900000BFFEE7704700E0401E0028FCD170471A
:1001A0000549096821F01001034A116011460968E8
:1001B000014311607047000000200240014600200A
:1001C000034A106800F038000843106070470000D0
:1001D000002002402DE9F0410246002500260020C3
:1001E00000230024002791F803C00CF00F0591F8BC
:1001F00003C00CF0100CBCF1000F03D091F802C04A
:100200004CEA050591F800C0BCF1000F31D014682C
:1002100000202BE04FF0010C0CFA00F3B1F800C005
:100220000CEA03069E4220D183004FF00F0C0CFA1B
:1002300003F7BC4305FA03FC4CEA040491F803C03D
:10024000BCF1280F06D14FF0010C0CFA00FCC2F8EB
:1002500014C00AE091F803C0BCF1480F05D14FF07B
:10026000010C0CFA00FCC2F810C0401C0828D1D3C5
:100270001460B1F800C0BCF1FF0F34DD54680020F9
:100280002EE000F1080C4FF0010808FA0CF3B1F869
:1002900000C00CEA03069E4221D183004FF00F0CF0
:1002A0000CFA03F7BC4305FA03FC4CEA040491F88A
:1002B00003C0BCF1280F05D100F1080C08FA0CF8B6
:1002C000C2F8148091F803C0BCF1480F07D100F1C7
:1002D000080C4FF0010808FA0CF8C2F81080401C16
:1002E0000828CED35460BDE8F081416170470161B8
:1002F000704770B5044600F05BF84FF4803000F0B2
:10030000AFF800F00BF90546012D23D11020FFF7BF
:1003100047FF0220FFF752FF002000F095F8A802E7
:1003200000F0C4F8002000F0CDF82146280400F0C9
:10033000DBF8012000F0D2F800BF392000F05EF8B1
:100340000028FAD0022000F0DDF800BF00F074F8B9
:100350000828FBD170BD00BFFEE7000008B50121F1
:10036000082000F015F82020ADF8000010208DF8CE
:10037000030003208DF8020069460248FFF72AFFB8
:1003800008BD0000000C014000BFFEE77047704749
:1003900029B1064A92690243044B9A6104E0034A78
:1003A00092698243014B9A6170470000001002403D
:1003B0000F48006840F001000D4908600846406899
:1003C0000C4908400A494860084600680A49084044
:1003D000074908600846006820F480200860084645
:1003E000406820F4FE0048604FF41F0088607047AA
:1003F000001002400000FFF8FFFFF6FE10B50146B6
:100400000022002300204A11012A02D1094C23684E
:1004100006E0022A02D1074C236A01E0054C636A18
:1004200001F01F02012494401C400CB1012000E0A7
:10043000002010BD001002400248406800F00C008F
:10044000704700000010024001460020034A506837
:1004500020F0F00008435060704700000010024098
:100460001149096821F480310F4A11601146096869
:1004700021F480211160B0F5803F03D0B0F5802FCA
:100480000ED106E00849096841F48031064A11603E
:1004900007E00549096841F4A021034A116000E022
:1004A00000BF00BF7047000000100240014600205E
:1004B000034A506820F4E060084350607047000031
:1004C0000010024001460020034A506820F46050AA
:1004D00040EAC100506070470010024001490866C0
:1004E000704700000000424202460020044B58685A
:1004F00020F47C1042EA01031843014B5860704716
:100500000010024001460020034A506820F003001A
:1005100008435060704700000010024038B50020CA
:1005200000900024002500BF3120FFF767FF05463B
:100530000098401C00900098B0F5A06F01D0002DED
:10054000F2D03120FFF75AFF08B1012400E0002467
:10055000204638BD704710B500F002F810BD00000D
:100560000CB50020019000903348006840F48030C2
:100570003149086000BF3048006800F40030009046
:100580000198401C0190009818B90198B0F5A06F2F
:10059000F1D12948006800F4003010B1012000902A
:1005A00001E0002000900098012843D12348006812
:1005B00040F01000214908600846006820F0030060
:1005C00008600846006840F0020008601A48406869
:1005D000194948600846406848600846406840F449
:1005E000806048600846406820F47C1048600846F7
:1005F000406840F4E81048600846006840F08070A9
:10060000086000BF0C48006800F000700028F9D0B6
:100610000948406820F003000749486008464068E0
:1006200040F00200486000BF0348406800F00C0042
:100630000828F9D10CBD0000001002400020024043
:100640007047000010B51348006840F001001149E0
:10065000086008464068104908400E49486008464E
:1006600000680E4908400B4908600846006820F4FD
:10067000802008600846406820F4FE0048604FF47F
:100680001F008860FFF767FF4FF0006004490860B3
:1006900010BD0000001002400000FFF8FFFFF6FE52
:1006A00008ED00E000BFFEE702E008C8121F08C125
:1006B000002AFAD170477047002001E001C1121FE3
:1006C000002AFBD1704700004FF40020FFF711FE15
:1006D000FFF744FE0DE020210648FFF706FE06481E
:1006E000FFF759FD20210348FFF701FE0248FFF7FD
:1006F00052FDF0E7000C0140FFFF0F000C0700085F
:0C0700000000002000040000B806000803
:0400000508000131BD
:00000001FF
