:020000040800F2
:100000001804002049010008850300084F03000878
:1000100081030008910100087B0F00080000000028
:10002000000000000000000000000000B907000808
:100030009501000800000000FD040008A508000864
:100040006301000863010008630100086301000800
:1000500063010008630100086301000863010008F0
:1000600063010008630100086301000863010008E0
:1000700063010008630100086301000863010008D0
:1000800063010008630100086301000863010008C0
:1000900063010008630100086301000863010008B0
:1000A00063010008630100086301000863010008A0
:1000B000090900086301000821090008630100081C
:1000C0006301000863010008630100086301000880
:1000D0006301000863010008290D0008630100089E
:1000E0006301000863010008630100086301000860
:1000F0006301000863010008630100086301000850
:10010000630100086301000863010008630100083F
:10011000630100086301000863010008630100082F
:10012000630100086301000863010008630100081F
:10013000DFF810D000F01AF8004800479D0F0008C3
:10014000AFF30080180400200648804706480047A7
:10015000FEE7FEE7FEE7FEE7FEE7FEE7FEE7FEE777
:10016000FEE7FEE7A908000831010008064C074D2C
:1001700006E0E06840F0010394E807009847103477
:10018000AC42F6D3FFF7D8FFF00F000810100008BC
:1001900000BFFEE7704700E0401E0028FCD170471A
:1001A0000549096821F01001034A116011460968E8
:1001B000014311607047000000200240014600200A
:1001C000034A106800F038000843106070470000D0
:1001D000002002402DE9F0410246002500260020C3
:1001E00000230024002791F803C00CF00F0591F8BC
:1001F00003C00CF0100CBCF1000F03D091F802C04A
:100200004CEA050591F800C0BCF1000F31D014682C
:1002100000202BE04FF0010C0CFA00F3B1F800C005
:100220000CEA03069E4220D183004FF00F0C0CFA1B
:1002300003F7BC4305FA03FC4CEA040491F803C03D
:10024000BCF1280F06D14FF0010C0CFA00FCC2F8EB
:1002500014C00AE091F803C0BCF1480F05D14FF07B
:10026000010C0CFA00FCC2F810C0401C0828D1D3C5
:100270001460B1F800C0BCF1FF0F34DD54680020F9
:100280002EE000F1080C4FF0010808FA0CF3B1F869
:1002900000C00CEA03069E4221D183004FF00F0CF0
:1002A0000CFA03F7BC4305FA03FC4CEA040491F88A
:1002B00003C0BCF1280F05D100F1080C08FA0CF8B6
:1002C000C2F8148091F803C0BCF1480F07D100F1C7
:1002D000080C4FF0010808FA0CF8C2F81080401C16
:1002E0000828CED35460BDE8F08170B5044600F014
:1002F00027F94FF4803000F0E5F900F041FA0546A7
:10030000012D23D11020FFF74BFF0220FFF756FFEE
:10031000002000F0CBF9A80200F0FAF9002000F06C
:1003200003FA2146280400F011FA012000F008FA2F
:1003300000BF392000F094F90028FAD0022000F024
:1003400013FA00BF00F0AAF90828FBD170BD00BF66
:10035000FEE7000008B50121082000F0E1F8C02008
:10036000ADF8000010208DF8030003208DF8020086
:1003700069460248FFF72EFF08BD0000000C01404F
:1003800000BFFEE7704708B54FF4A06000F046F8E4
:1003900026208DF8000001208DF801008DF8020064
:1003A0008DF80300684600F001F808BD70B5002123
:1003B00000230F22C47804B3154C246804F4E064CD
:1003C000C4F5E064210AC1F10403CA40447804FA88
:1003D00003F184781440214309010E4C0678A1559D
:1003E000047804F01F050124AC4005786D11AD00C0
:1003F00005F1E025C5F8004109E0047804F01F0587
:100400000124AC40044D0678761145F8264070BDB5
:100410000CED00E000E400E080E100E0024901436F
:10042000024A1160704700000000FA050CED00E080
:1004300030B589B005460C46012140F6040000F0B5
:100440006FF818208DF823004FF47060ADF820008D
:1004500003208DF8220008A92648FFF7BBFE05A857
:1004600000F058FC0020ADF81A00ADF81600ADF809
:100470001850ADF8144005A91F4800F0F9FB6020A2
:10048000ADF804000020ADF80C000120ADF8060026
:100490000020ADF80A0001A9174800F08BFA01A965
:1004A000154800F0DDFA01A9134800F039FB01A955
:1004B000114800F08FFB01210F4800F05AFA01218A
:1004C0000D4800F0C3FA01210B4800F01BFB01218D
:1004D000094800F075FB0121074800F0B9FB012134
:1004E000054800F02BFA0121034800F036FA09B064
:1004F00030BD000000080140002C014070470000A2
:1005000029B1064AD2690243044BDA6104E0034A86
:10051000D2698243014BDA6170470000001002404B
:1005200029B1064A92690243044B9A6104E0034AE6
:1005300092698243014B9A617047000000100240AB
:100540000F48006840F001000D4908600846406807
:100550000C4908400A494860084600680A490840B2
:10056000074908600846006820F4802008600846B3
:10057000406820F4FE0048604FF41F008860704718
:10058000001002400000FFF8FFFFF6FE30B500212A
:100590000022002400232D4D6D6805F00C0121B1CF
:1005A000042905D0082923D105E0294D056022E062
:1005B000274D05601FE0254D6D6805F47012234D31
:1005C0006D6805F48034022505EB92421CB9214D7B
:1005D000554305600BE01D4D6D6805F400351DB1F8
:1005E0001C4D5543056002E0194D5543056002E07E
:1005F000174D056000BF00BF144D6D6805F0F00198
:100600000909154D6B5C0568DD4045600F4D6D684F
:1006100005F4E061090A104D6B5C4568DD408560BA
:100620000A4D6D6805F46051C90A0B4D6B5C456855
:10063000DD40C560054D6D6805F44041890B074DEF
:100640006B5CC568B5FBF3F5056130BD0010024079
:1006500000127A0000093D00000000201000002078
:1006600010B501460022002300204A11012A02D1C0
:10067000094C236806E0022A02D1074C236A01E0F4
:10068000054C636A01F01F02012494401C400CB128
:10069000012000E0002010BD001002400248406828
:1006A00000F00C00704700000010024001460020DE
:1006B000034A506820F0F000084350607047000083
:1006C000001002401149096821F480310F4A11607D
:1006D0001146096821F480211160B0F5803F03D0F4
:1006E000B0F5802F0ED106E00849096841F4803149
:1006F000064A116007E00549096841F4A021034A50
:10070000116000E000BF00BF704700000010024011
:1007100001460020034A506820F4E060084350601E
:10072000704700000010024001460020034A506854
:1007300020F4605040EAC100506070470010024051
:10074000014908667047000000004242024600204E
:10075000044B586820F47C1042EA01031843014B13
:10076000586070470010024001460020034A50685C
:1007700020F0030008435060704700000010024062
:1007800038B5002000900024002500BF3120FFF77D
:1007900067FF05460098401C00900098B0F5A06FD8
:1007A00001D0002DF2D03120FFF75AFF08B101240B
:1007B00000E00024204638BD704710B500F002F874
:1007C00010BD00000CB50020019000903348006877
:1007D00040F480303149086000BF3048006800F4C0
:1007E000003000900198401C0190009818B90198C1
:1007F000B0F5A06FF1D12948006800F4003010B1C5
:100800000120009001E0002000900098012843D1D1
:100810002348006840F0100021490860084600683D
:1008200020F0030008600846006840F002000860FD
:100830001A484068194948600846406848600846B8
:10084000406840F4806048600846406820F47C10AE
:1008500048600846406840F4E81048600846006870
:1008600040F08070086000BF0C48006800F0007025
:100870000028F9D00948406820F003000749486083
:100880000846406840F00200486000BF03484068E6
:1008900000F00C000828F9D10CBD00000010024047
:1008A000002002407047000010B51348006840F077
:1008B00001001149086008464068104908400E4987
:1008C0004860084600680E4908400B490860084621
:1008D000006820F4802008600846406820F4FE008C
:1008E00048604FF41F008860FFF767FF4FF000601B
:1008F0000449086010BD0000001002400000FFF82D
:10090000FFFFF6FE08ED00E010B50121880700F0BA
:100910003FF818B10121880700F01CF810BD000055
:1009200010B50121044800F033F818B10121024844
:1009300000F010F810BD00000008004021B102884E
:1009400042F08002028004E002884FF67F731A4072
:1009500002807047CA430282704721B1028842F088
:100960000102028004E002884FF6FE731A40028002
:10097000704731B1B0F8442042F40042A0F844205E
:1009800005E0B0F84420C2F30E02A0F844207047FE
:1009900030B50246002000230024158A05EA010331
:1009A000958905EA010413B10CB1012000E0002093
:1009B00030BD000070B5002400220023058C4FF6E6
:1009C000FE7635400584028C8388048B4FF68F7544
:1009D0002C40B51E2C400D882C43751E2A400D89D5
:1009E0002A434D882A43144DA8420BD0134DA842E8
:1009F00008D0134DA84205D0124DA84202D0124D86
:100A0000A84213D14FF6F7752A404D892A434FF675
:100A1000FB752A408D882A434FF6FF652B404FF621
:100A2000FF552B408D892B43CD892B438380048335
:100A3000CD888586028470BD002C014000340140C1
:100A40000040014000440140004801400A460021A6
:100A5000018B4FF6F7731940114301837047000073
:100A600070B5002400220023058C4FF6EF76354048
:100A70000584028C8388048B48F6FF752C404FF662
:100A8000FF452C400D884FF6FF7606EA05252C43DE
:100A90004FF6DF752A400D8906EA05152A434D8871
:100AA00006EA05152A43154DA84202D0144DA84266
:100AB0001DD14FF67F752A404D894FF6FF7606EA25
:100AC00005152A434FF6BF752A408D8806EA05159D
:100AD0002A434FF6FF352B404FF2FF752B408D898F
:100AE00006EA85052B43CD8906EA85052B438380DD
:100AF0000483CD880587028470BD0000002C01406E
:100B0000003401400A460021018B4FF2FF73194067
:100B10004FF6FF7303EA0223194301837047000075
:100B200070B5002400220023058C4FF6FF66354087
:100B30000584028C8388848B4FF68F752C404FF68A
:100B4000FC752C400D882C434FF6FF552A400D892B
:100B50004FF6FF7606EA05252A434D8806EA052565
:100B60002A43154DA84202D0144DA8421DD14FF280
:100B7000FF752A404D894FF6FF7606EA05252A4380
:100B80004FF6FF352A408D8806EA05252A434EF6A2
:100B9000FF752B404DF6FF752B408D8906EA051534
:100BA0002B43CD8906EA05152B4383808483CD88AA
:100BB0008587028470BD0000002C01400034014094
:100BC0000A460021818B4FF6F77319401143818348
:100BD0007047000070B5002200230024058C4EF6FB
:100BE000FF7635400584038C8488828B48F6FF7538
:100BF0002A404FF6FF452A400D884FF6FF7606EA59
:100C000005252A434DF6FF752B400D8906EA05356B
:100C10002B434D8806EA05352B430B4DA84202D0E5
:100C20000A4DA84208D14BF6FF752C408D894FF62E
:100C3000FF7606EA85152C4384808283CD88A0F850
:100C40004050038470BD0000002C0140003401407E
:100C50000A460021818B4FF2FF7319404FF6FF7354
:100C600003EA02231943818370478186704700009D
:100C7000002202881D4B98420ED01D4B98420BD08B
:100C8000B0F1804F08D01B4B984205D01A4B9842C8
:100C900002D01A4B984204D14FF68F731A404B88FA
:100CA0001A43174B984207D0164B984204D04FF680
:100CB000FF431A40CB881A4302808B8883850B88B8
:100CC00003850A4B98420BD0094B984208D00E4B33
:100CD000984205D00D4B984202D00D4B984201D15D
:100CE0000B7A03860123838270470000002C0140A9
:100CF000003401400004004000080040000C0040A7
:100D00000010004000140040004001400044014039
:100D1000004801404FF6FF71818000210180C180B1
:100D2000418001727047000010B540F2255106481D
:100D300000F05EF838B1044800F016F9C4B221465C
:100D4000014800F016F910BD0044004021B182892D
:100D500042F40052828104E082894DF6FF731A400A
:100D60008281704700B585B001210420FFF7D8FBD0
:100D700001214804FFF7C4FB0420ADF8100018203F
:100D80008DF8130003208DF8120004A91648FFF710
:100D900021FA0820ADF8100004208DF8130004A9F2
:100DA0001148FFF717FA4FF4E13000900020ADF83A
:100DB0000400ADF80600ADF80800ADF80C000C20FA
:100DC000ADF80A006946094800F062F8FFF7DBFA5F
:100DD000012240F22551054800F034F80121034872
:100DE000FFF7B4FF05B000BD00080140004400401B
:100DF00070B50246002400230025002040F66A1644
:100E0000B14200D100BFC1F3421501F01F0301261A
:100E100006FA03F3012D02D19689334006E0022D34
:100E200002D1168A334001E0968A33400C12012623
:100E300006FA04F41688344013B10CB1012000E026
:100E4000002070BDF0B503460024002600250020D8
:100E500040F66A17B94200D100BF1846C1F34214E8
:100E600001F01F06012707FA06F5012C01D10C300D
:100E700004E0022C01D1103000E014301AB10768F0
:100E80002F43076002E00768AF430760F0BD000032
:100E90002DE9F04786B005460E460024A24600BF65
:100EA000A1460027B08900B100BF2F462C8A4CF61E
:100EB000FF700440F08804432C82AC894EF6F31096
:100EC0000440B08831890843718908430443AC81E8
:100ED000AC8A4FF6FF400440B0890443AC8201A8BD
:100EE000FFF754FB1F48874202D1DDF810A001E054
:100EF000DDF80CA0A88900F4004040B10AEBCA005C
:100F000000EB0A1031684900B0FBF1F807E00AEB8A
:100F1000CA0000EB0A1031688900B0FBF1F86420C8
:100F2000B8FBF0F004012009642101FB1089A889B5
:100F300000F4004040B1322000EBC900B0FBF1F0FA
:100F400000F00700044308E0322000EB09106421A0
:100F5000B0FBF1F000F00F0004432C8106B0BDE8B7
:100F6000F08700000038014001468888C0F308007F
:100F70007047C1F308028280704700BFFEE702E0BD
:100F800008C8121F08C1002AFAD170477047002014
:100F900001E001C1121F002AFBD170470024012586
:100FA0004FF4C010FFF7A1F9FFF7DCFEFFF7D2F90D
:100FB000002141F61F40FFF73BFA15E040F6FF70B5
:100FC000FFF7E9F8A1B20948FFF74FFE012D01D163
:100FD000641C02E0022D00D1641EB4F5E15F01D172
:100FE000022501E004B90125E8E70000002C0140DA
:100FF0001010000800000020140000007E0F000800
:101000002410000814000020040400008E0F0008C3
:10101000000000000102030401020304060708099E
:0410200002040608B8
:0400000508000131BD
:00000001FF
