:020000040800F2
:100000000004002049010008850300084F03000890
:1000100081030008910100082D070008000000007E
:100020000000000000000000000000004D05000876
:10003000950100080000000087030008C9060008B9
:100040006301000863010008630100086301000800
:1000500063010008630100086301000863010008F0
:1000600063010008630100086301000863010008E0
:1000700063010008630100086301000863010008D0
:1000800063010008630100086301000863010008C0
:1000900063010008630100086301000863010008B0
:1000A00063010008630100086301000863010008A0
:1000B0006301000863010008630100086301000890
:1000C0006301000863010008630100086301000880
:1000D0006301000863010008630100086301000870
:1000E0006301000863010008630100086301000860
:1000F0006301000863010008630100086301000850
:10010000630100086301000863010008630100083F
:10011000630100086301000863010008630100082F
:10012000630100086301000863010008630100081F
:10013000DFF810D000F01AF8004800475107000817
:10014000AFF30080000400200648804706480047BF
:10015000FEE7FEE7FEE7FEE7FEE7FEE7FEE7FEE777
:10016000FEE7FEE7CD06000831010008064C074D0A
:1001700006E0E06840F0010394E807009847103477
:10018000AC42F6D3FFF7D8FF8407000894070008B5
:1001900000BFFEE7704700000549096821F0100123
:1001A000034A11601146096801431160704700005D
:1001B0000020024001460020034A106800F0380089
:1001C0000843106070470000002002402DE9F04114
:1001D000024600250026002000230024002791F875
:1001E00003C00CF00F0591F803C00CF0100CBCF12B
:1001F000000F03D091F802C04CEA050591F800C049
:10020000BCF1000F31D0146800202BE04FF0010C3E
:100210000CFA00F3B1F800C00CEA03069E4220D1AC
:1002200083004FF00F0C0CFA03F7BC4305FA03FCF4
:100230004CEA040491F803C0BCF1280F06D14FF03A
:10024000010C0CFA00FCC2F814C00AE091F803C0DB
:10025000BCF1480F05D14FF0010C0CFA00FCC2F8BC
:1002600010C0401C0828D1D31460B1F800C0BCF104
:10027000FF0F34DD546800202EE000F1080C4FF031
:10028000010808FA0CF3B1F800C00CEA03069E421C
:1002900021D183004FF00F0C0CFA03F7BC4305FA91
:1002A00003FC4CEA040491F803C0BCF1280F05D10B
:1002B00000F1080C08FA0CF8C2F8148091F803C099
:1002C000BCF1480F07D100F1080C4FF0010808FA03
:1002D0000CF8C2F81080401C0828CED35460BDE84A
:1002E000F081416170470161704770B5044600F0CC
:1002F0005BF84FF4803000F0AFF800F00BF90546E2
:10030000012D23D11020FFF747FF0220FFF752FFF6
:10031000002000F095F8A80200F0C4F8002000F0DA
:10032000CDF82146280400F0DBF8012000F0D2F8D7
:1003300000BF392000F05EF80028FAD0022000F05B
:10034000DDF800BF00F074F80828FBD170BD00BFD5
:10035000FEE7000008B50121082000F015F8202074
:10036000ADF8000010208DF8030003208DF8020086
:1003700069460248FFF72AFF08BD0000000C014053
:1003800000BFFEE77047704729B1064A92690243F1
:10039000044B9A6104E0034A92698243014B9A61DB
:1003A00070470000001002400F48006840F0010054
:1003B0000D490860084640680C4908400A494860F1
:1003C000084600680A49084007490860084600686E
:1003D00020F4802008600846406820F4FE00486051
:1003E0004FF41F0088607047001002400000FFF8C3
:1003F000FFFFF6FE10B501460022002300204A113F
:10040000012A02D1094C236806E0022A02D1074CD6
:10041000236A01E0054C636A01F01F020124944045
:100420001C400CB1012000E0002010BD0010024073
:100430000248406800F00C007047000000100240C5
:1004400001460020034A506820F0F0000843506045
:1004500070470000001002401149096821F4803102
:100460000F4A11601146096821F480211160B0F52E
:10047000803F03D0B0F5802F0ED106E0084909680F
:1004800041F48031064A116007E00549096841F4EA
:10049000A021034A116000E000BF00BF70470000C8
:1004A0000010024001460020034A506820F4E0603A
:1004B00008435060704700000010024001460020D1
:1004C000034A506820F4605040EAC1005060704711
:1004D00000100240014908667047000000004242D7
:1004E00002460020044B586820F47C1042EA0103C5
:1004F0001843014B5860704700100240014600202D
:10050000034A506820F00300084350607047000021
:100510000010024038B5002000900024002500BFE4
:100520003120FFF767FF05460098401C00900098B7
:10053000B0F5A06F01D0002DF2D03120FFF75AFFA7
:1005400008B1012400E00024204638BD704710B5F2
:1005500000F002F810BD00000CB5002001900090E2
:100560003348006840F480303149086000BF3048AB
:10057000006800F4003000900198401C0190009841
:1005800018B90198B0F5A06FF1D12948006800F4BE
:10059000003010B10120009001E000200090009890
:1005A000012843D12348006840F010002149086029
:1005B0000846006820F0030008600846006840F024
:1005C000020008601A4840681949486008464068B7
:1005D00048600846406840F48060486008464068CB
:1005E00020F47C1048600846406840F4E8104860F9
:1005F0000846006840F08070086000BF0C48006842
:1006000000F000700028F9D00948406820F003008D
:10061000074948600846406840F00200486000BF53
:100620000348406800F00C000828F9D10CBD000018
:10063000001002400020024030B50146B1F1807F39
:1006400001D3012030BD21F07F40401E4FF0E02259
:10065000506150170F22002807DA13071D0E094BAF
:1006600000F00F04241F1D5503E013071C0E064B5A
:100670001C5400BF00204FF0E02290610720106161
:100680000020DFE718ED00E000E400E070B504466C
:100690000C48FFF7D1FF002508E000BF4FF0E02035
:1006A000006900F480300028F8D06D1CA542F4D316
:1006B0004FF0E020006920F001004FF0E0210861D8
:1006C00070BD0000401901007047000010B51348CC
:1006D000006840F001001149086008464068104970
:1006E00008400E494860084600680E4908400B491A
:1006F00008600846006820F48020086008464068CA
:1007000020F4FE0048604FF41F008860FFF71FFFD1
:100710004FF000600449086010BD00000010024066
:100720000000FFF8FFFFF6FE08ED00E000BFFEE767
:1007300002E008C8121F08C1002AFAD170477047AA
:10074000002001E001C1121F002AFBD17047000008
:100750004FF40020FFF7C9FDFFF7FCFD0FE020215B
:100760000748FFF7BEFD4FF4FA70FFF78FFF202117
:100770000348FFF7B8FD4FF4FA70FFF787FFEEE785
:10078000000C014094070008000000200004000055
:040790004007000816
:0400000508000131BD
:00000001FF
